:100000000C9458000C9480000C9480000C94800098
:100010000C9480000C9480000C9480000C94800060
:100020000C9480000C9480000C9480000C94800050
:100030000C9480000C9480000C9480000C94800040
:100040000C9411030C9480000C9481030C945B03BA
:100050000C9480000C9480000C9480000C94800020
:100060000C94B3030C9480000000000025002800CD
:100070002B00040404040404040402020202020229
:10008000030303030303010204081020408001025C
:1000900004081020010204081020000000080002DB
:1000A0000100000304070000000000000000E1045C
:1000B00011241FBECFEFD8E0DEBFCDBF11E0A0E01E
:1000C000B1E0EAE7FDE002C005900D92AC39B1075E
:1000D000D9F722E0ACE9B1E001C01D92A23EB2071F
:1000E000E1F710E0C8E5D0E004C02197FE010E94CE
:1000F000B006C735D107C9F70E941A050C94BB0694
:100100000C94000090E0FC01E656FF4F2491FC01A6
:10011000EA57FF4F3491FC01EE58FF4FE491EE2374
:10012000B1F1222339F1233091F038F42130A9F0D4
:10013000223001F584B58F7D12C0273091F0283030
:10014000A1F02430B9F4809180008F7D03C08091AC
:1001500080008F77809380000DC084B58F7784BD39
:1001600009C08091B0008F7703C08091B0008F7D6F
:100170008093B000F0E0EE0FFF1FE859FF4FA5910C
:10018000B4918FB7F894EC913E2B3C938FBF0895B8
:100190003FB7F8948091350290913602A0913702D2
:1001A000B091380226B5A89B05C02F3F19F00196E3
:1001B000A11DB11D3FBFBA2FA92F982F8827820FED
:1001C000911DA11DB11DBC01CD0142E0660F771F3D
:1001D000881F991F4A95D1F70895CF92DF92EF9229
:1001E000FF920F931F93CF93DF936C017A018B01E2
:1001F000C0E0D0E0CE15DF0589F0D8016D918D010A
:10020000D601ED91FC910190F081E02DC601099598
:10021000892B11F47E0102C02196ECCFC701DF913A
:10022000CF911F910F91FF90EF90DF90CF900895A5
:10023000FC01538D448D252F30E0842F90E0821BEC
:10024000930B541710F0CF96089501970895FC0171
:10025000918D828D981761F0828DDF01A80FB11DFD
:100260005D968C91928D9F5F9F73928F90E0089521
:100270008FEF9FEF0895FC01918D828D981731F0DB
:10028000828DE80FF11D858D90E008958FEF9FEF2F
:100290000895FC01918D228D892F90E0805C9F4F05
:1002A000821B91098F739927089589E392E00E9438
:1002B000490121E0892B09F420E0822F0895FC01F7
:1002C000848DDF01A80FB11DA35ABF4F2C91848DDF
:1002D00090E001968F739927848FA689B7892C9314
:1002E000A089B1898C9180648C93938D848D9813AF
:1002F00006C00288F389E02D80818F7D8083089578
:10030000EF92FF920F931F93CF93DF93EC0181E065
:10031000888F9B8D8C8D981305C0E889F989808121
:1003200085FD24C0F62E0B8D10E00F5F1F4F0F735D
:100330001127E02E8C8DE8120CC00FB607FCFACF07
:10034000E889F989808185FFF5CFCE010E945F01A0
:10035000F1CF8B8DFE01E80FF11DE35AFF4FF082C4
:100360000B8FEA89FB898081806207C0EE89FF8953
:100370006083E889F98980818064808381E090E0EE
:10038000DF91CF911F910F91FF90EF900895CF9340
:10039000DF93EC01888D8823C9F0EA89FB8980818D
:1003A00085FD05C0A889B9898C9186FD0FC00FB65F
:1003B00007FCF5CF808185FFF2CFA889B9898C91A0
:1003C00085FFEDCFCE010E945F01E7CFDF91CF9196
:1003D000089580E090E0892B29F00E945501811159
:1003E0000C9400000895089581E090E03091E401BC
:1003F0002091E301321710F480E090E0919581950F
:10040000910908958091E4019091E301891730F4F6
:100410008F5F8093E40180E090E008958FEF9FEF7D
:1004200008958091E30190E02091E401821B9109FD
:100430000895089580E090E0089585ED8093BC00D4
:100440008091BC0084FDFCCF10920B020895409176
:10045000BE01262F30E0240F311D21323105DCF49E
:1004600020910B022430C9F4FC0180E090E0861753
:1004700058F43091BE012191DC01A456BE4FA30F68
:10048000B11D2C930196F3CF8091BE01680F60934C
:10049000BE0180E0089581E0089582E00895CF9242
:1004A000DF92EF92FF920F931F93CF93DF937C0124
:1004B000262F972F8A0180910C02882391F0C62F56
:1004C000D72F6E01C40ED51ECC15DD0571F06991D4
:1004D000D701ED91FC910190F081E02DC7010995C4
:1004E000F3CF642F822F0E942702C801DF91CF91A2
:1004F0001F910F91FF90EF90DF90CF900895CF93D1
:10050000DF931F92CDB7DEB7698320910C022223BF
:10051000D1F020912F02203240F021E030E0FC01A8
:100520003383228380E090E015C080910D02E82F94
:10053000F0E0E25FFD4F998190838F5F80930D0221
:1005400080932F0205C061E0CE0101960E94270230
:1005500081E090E00F90DF91CF910895009769F0CE
:10056000FC0101900020E9F73197AF01481B590BBE
:10057000BC0189E392E00C94ED0080E090E00895E6
:10058000CF93DF930E94AE02EC0184E291E00E94DF
:10059000AE028C0F9D1FDF91CF9108958F929F9295
:1005A000AF92BF920F931F93CF93DF93CDB7DEB778
:1005B000A1970FB6F894DEBF0FBECDBF19A242308F
:1005C00008F44AE08E010F5D1F4F842E912CA12C60
:1005D000B12CA50194010E948E06E62FB901CA0133
:1005E00001501109EA3014F4E05D01C0E95CD80162
:1005F000EC93232B242B252B61F7C8010E94AE021C
:10060000A1960FB6F894DEBF0FBECDBFDF91CF919C
:100610001F910F91BF90AF909F908F9008950E946F
:10062000B6061F920F920FB60F9211242F933F938D
:100630008F939F93AF93BF93809131029091320239
:10064000A0913302B09134023091300223E0230FA5
:100650002D3720F40196A11DB11D05C026E8230FFA
:100660000296A11DB11D2093300280933102909318
:100670003202A0933302B0933402809135029091FC
:100680003602A0913702B09138020196A11DB11D2A
:100690008093350290933602A0933702B0933802CC
:1006A000BF91AF919F918F913F912F910F900FBE6E
:1006B0000F901F9018951F920F920FB60F92112452
:1006C0002F933F934F935F936F937F938F939F935A
:1006D000AF93BF93EF93FF9389E392E00E945F0192
:1006E000FF91EF91BF91AF919F918F917F916F910A
:1006F0005F914F913F912F910F900FBE0F901F90E0
:1007000018951F920F920FB60F9211242F938F936B
:100710009F93EF93FF93E0914902F0914A02808109
:10072000E0914F02F091500282FD12C090818091C1
:1007300052028F5F8F7320915302821751F0E09124
:100740005202F0E0E75CFD4F958F8093520201C0AA
:100750008081FF91EF919F918F912F910F900FBE0C
:100760000F901F9018951F920F920FB60F921124A1
:100770002F933F934F935F936F937F938F939F93A9
:10078000AF93BF93EF93FF938091B900887F80363A
:1007900009F49CC068F5883209F45BC090F480319C
:1007A00009F454C038F4882309F4F6C0883009F4F9
:1007B0004DC0F6C0883109F44CC0803209F45DC0E8
:1007C000EFC0803409F468C048F4803309F455C0A0
:1007D000883309F0E5C080930902D8C0803509F458
:1007E0004FC0883509F45DC0883409F0D9C0D6C03F
:1007F000883909F4C7C0A8F4883709F467C038F409
:10080000883609F463C0803709F460C0C9C08838ED
:1008100009F4B8C0803909F45FC0803809F0C0C05D
:100820005BC0803B09F486C038F4803A09F466C0A6
:10083000883A09F47FC0B4C0803C09F4A7C0883C62
:1008400009F4A4C0883B09F48AC0AAC08091E601DB
:1008500010C09091080280910702981770F5E091FE
:10086000080281E08E0F80930802F0E0E951FE4F0C
:1008700080818093BB0085EC86C0809309028EC086
:10088000E091080281E08E0F809308028091BB0006
:10089000F0E0E951FE4F80839091080280910702B9
:1008A0006EC0E091080281E08E0F80930802809173
:1008B000BB00F0E0E951FE4F808380910A02811174
:1008C0006DC081E08093E50184EA61C083E080939C
:1008D0000B021092E201CFCF8091E201803208F04A
:1008E00051C0E091E20181E08E0F8093E20180919E
:1008F000BB00F0E0EE53FE4F8083BDCF85EC8093CC
:10090000BC0010920B028091E201803230F4E09141
:10091000E201F0E0EE53FE4F10826091E20170E0E0
:10092000E091C001F091C10182EC91E00995109233
:10093000E20136C084E080930B021092BF01109256
:10094000BE01E091BC01F091BD0109958091BE010D
:10095000811105C081E08093BE0110929C01E0915D
:10096000BF0181E08E0F8093BF01F0E0E456FE4F9F
:1009700080818093BB009091BF018091BE01981748
:1009800008F479CF85E88093BC000AC085EC809399
:10099000BC0010920B0204C0109209020E941D02BA
:1009A000FF91EF91BF91AF919F918F917F916F9147
:1009B0005F914F913F912F910F900FBE0F901F901D
:1009C0001895E9E3F2E01382128288EE93E0A0E04A
:1009D000B0E084839583A683B78324E031E031833C
:1009E000208325EC30E03587248724EC30E03787FE
:1009F000268720EC30E0318B208B21EC30E0338BEC
:100A0000228B22EC30E0358B248B26EC30E0378BC8
:100A1000268B118E128E138E148EE6EDF2E0138269
:100A2000128284839583A683B78386E191E09183C4
:100A300080830895789484B5826084BD84B5816094
:100A400084BD85B5826085BD85B5816085BD809199
:100A50006E00816080936E00109281008091810011
:100A60008260809381008091810081608093810009
:100A7000809180008160809380008091B1008460CB
:100A80008093B1008091B00081608093B00080912C
:100A90007A00846080937A0080917A0082608093EB
:100AA0007A0080917A00816080937A0080917A0048
:100AB000806880937A001092C1001092E401109235
:100AC000E30110920D0210922F0210920B0281E0AE
:100AD00080930A021092E50182E10E94820083E184
:100AE0000E9482008091B9008E7F8093B90080912E
:100AF000B9008D7F8093B90088E48093B80085E4C5
:100B00008093BC00E0914902F0914A0282E0808328
:100B1000E0914502F09146021082E0914702F09187
:100B200048028FEC808310925102E0914D02F091C7
:100B30004E0286E08083E0914B02F0914C0280816E
:100B400080618083E0914B02F0914C02808188604B
:100B50008083E0914B02F0914C0280818068808319
:100B6000E0914B02F0914C0280818F7D808387E27F
:100B700091E00E94C00205EE65ECB62E11E072E035
:100B8000A72E99249A9484E391E00E94C002C12C7C
:100B9000D12C7601C394C0E0D0E010930C02C09237
:100BA0002E0210920D0210922F0280910B028111E1
:100BB000FCCFA0920B0210930A02909209021092AD
:100BC0000802109207021092E6019091E601960148
:100BD000220F331F292B2093E6019091E5019130DC
:100BE00069F41092E5019091E6019093BB00909119
:100BF000BC0093FDF8CFB092BC0002C00093BC00D3
:100C000090910B029230E1F3909109029F3F69F0BD
:100C100080910902803231F080910902803321F005
:100C200084E003C082E001C083E010920D021092C4
:100C30002F0210920C02811119C080E491E00E94F1
:100C4000AE0220E1C216D104E104F10420F48FE5E4
:100C500091E00E94AE0240E1C701B6010E94CE02BF
:100C600081E691E00E94C002219619C08430B9F457
:100C700085E691E00E94AE0280E1C816D104E1044D
:100C8000F10420F48FE591E00E94AE0240E1C7013B
:100C9000B6010E94CE0284E291E00E94AE022FEFE4
:100CA000C21AD20AE20AF20A8FE7C816D104E10496
:100CB000F10409F072CFCD2B19F480E891E002C065
:100CC00086E991E00E94C0020E94C8002B013C010D
:100CD00088E8C82E83E1D82EE12CF12C0E94C800B0
:100CE000DC01CB0184199509A609B709883E934018
:100CF000A105B10558F021E0C21AD108E108F108B8
:100D000088EE480E83E0581E611C711CC114D1048A
:100D1000E104F10419F70E94E90135CFA1E21A2E8E
:100D2000AA1BBB1BFD010DC0AA1FBB1FEE1FFF1F8F
:100D3000A217B307E407F50720F0A21BB30BE40BDF
:100D4000F50B661F771F881F991F1A9469F7609526
:100D50007095809590959B01AC01BD01CF010895E0
:100D6000EE0FFF1F0590F491E02D099481E090E0D3
:0A0D7000F8940C94BB06F894FFCF32
:100D7A00000000008001ED001801C70149012701A8
:100D8A003B01000000007F024F021A02F301110228
:100D9A000202F4010D0A000A493243205363616ECC
:100DAA006E6572005363616E6E696E672E2E2E0039
:100DBA004932432064657669636520666F756E649F
:100DCA002061742061646472657373203078003026
:100DDA000020202100556E6B6E6F77206572726F4E
:100DEA0072206174206164647265737320307800C4
:100DFA004E6F2049324320646576696365732066C5
:0C0E0A006F756E640A00646F6E650A006C
:00000001FF
